:10F8000031404002B240805A2001D242FF105700DE
:10F81000D242FE105600C2432600F240FD002200F4
:10F82000E0430208C2432300E043FB07C243210038
:10F83000C2432E00F2432A00C2432900724018003E
:10F840000343D2D32100B01276F8B01276F8D2C3B7
:10F850002100B01276F8F2C0030023000013B2407A
:10F8600030757201B2401002600192B36001FD2751
:10F87000A242600130413740A600B0125EF8178303
:04F88000FC233041F4
:02FFE40042F8E1
:02FFFE0000F809
:00F8040103
:00000001FF
